{
  "contractName": "EccGateway",
  "abi": [
    {
      "inputs": [
        {
          "name": "_paymentCollector",
          "type": "address"
        }
      ],
      "payable": false,
      "stateMutability": "nonpayable",
      "type": "constructor"
    },
    {
      "anonymous": false,
      "inputs": [
        {
          "indexed": true,
          "name": "from",
          "type": "address"
        },
        {
          "indexed": false,
          "name": "userId",
          "type": "uint256"
        },
        {
          "indexed": false,
          "name": "amount",
          "type": "uint256"
        },
        {
          "indexed": false,
          "name": "paymentTime",
          "type": "uint256"
        }
      ],
      "name": "NewPayment",
      "type": "event"
    },
    {
      "constant": false,
      "inputs": [],
      "name": "withdrawLostTRXFromBalance",
      "outputs": [],
      "payable": false,
      "stateMutability": "nonpayable",
      "type": "function"
    },
    {
      "constant": false,
      "inputs": [
        {
          "name": "userId",
          "type": "uint256"
        }
      ],
      "name": "depositNewPayment",
      "outputs": [],
      "payable": true,
      "stateMutability": "payable",
      "type": "function"
    },
    {
      "constant": false,
      "inputs": [
        {
          "name": "_address",
          "type": "address"
        }
      ],
      "name": "setPaymentCollector",
      "outputs": [],
      "payable": false,
      "stateMutability": "nonpayable",
      "type": "function"
    }
  ],
  "bytecode": "0x608060405234801561001057600080fd5b50d3801561001d57600080fd5b50d2801561002a57600080fd5b506040516020806106548339810180604052602081101561004a57600080fd5b8101908080519060200190929190505050336000806101000a81548173ffffffffffffffffffffffffffffffffffffffff021916908373ffffffffffffffffffffffffffffffffffffffff16021790555080600160006101000a81548173ffffffffffffffffffffffffffffffffffffffff021916908373ffffffffffffffffffffffffffffffffffffffff16021790555050610568806100ec6000396000f3fe608060405260043610610051576000357c01000000000000000000000000000000000000000000000000000000009004806357a3a31b14610056578063899cdb90146100c1578063b1a27991146100f2575b600080fd5b34801561006257600080fd5b50d3801561006f57600080fd5b50d2801561007c57600080fd5b506100bf6004803603602081101561009357600080fd5b81019080803573ffffffffffffffffffffffffffffffffffffffff169060200190929190505050610120565b005b3480156100cd57600080fd5b50d380156100da57600080fd5b50d280156100e757600080fd5b506100f061020b565b005b61011e6004803603602081101561010857600080fd5b81019080803590602001909291905050506102f6565b005b6000809054906101000a900473ffffffffffffffffffffffffffffffffffffffff1673ffffffffffffffffffffffffffffffffffffffff163373ffffffffffffffffffffffffffffffffffffffff161415156101c7576040517f08c379a00000000000000000000000000000000000000000000000000000000081526004018080602001828103825260228152602001806104f96022913960400191505060405180910390fd5b80600160006101000a81548173ffffffffffffffffffffffffffffffffffffffff021916908373ffffffffffffffffffffffffffffffffffffffff16021790555050565b6000809054906101000a900473ffffffffffffffffffffffffffffffffffffffff1673ffffffffffffffffffffffffffffffffffffffff163373ffffffffffffffffffffffffffffffffffffffff161415156102b2576040517f08c379a00000000000000000000000000000000000000000000000000000000081526004018080602001828103825260228152602001806104f96022913960400191505060405180910390fd5b6102f46000809054906101000a900473ffffffffffffffffffffffffffffffffffffffff163073ffffffffffffffffffffffffffffffffffffffff163161035e565b565b600034111515610351576040517f08c379a000000000000000000000000000000000000000000000000000000000815260040180806020018281038252602281526020018061051b6022913960400191505060405180910390fd5b61035b33826103e5565b50565b8173ffffffffffffffffffffffffffffffffffffffff166108fc829081150290604051600060405180830381858888f1935050505015156103e1578073ffffffffffffffffffffffffffffffffffffffff166108fc829081150290604051600060405180830381858888f193505050501580156103df573d6000803e3d6000fd5b505b5050565b6000823b905060008163ffffffff16141515610469576040517f08c379a00000000000000000000000000000000000000000000000000000000081526004018080602001828103825260148152602001807f63616e6e6f74206265206120636f6e747261637400000000000000000000000081525060200191505060405180910390fd5b8273ffffffffffffffffffffffffffffffffffffffff167f04b737a2e241d9198fa78b80bf0f14aa58250d7cabe0ad875ee26691a412d7c483344260405180848152602001838152602001828152602001935050505060405180910390a26104f3600160009054906101000a900473ffffffffffffffffffffffffffffffffffffffff163461035e565b50505056fe4f6e6c79206f776e65722063616e2063616c6c20746869732066756e6374696f6e2e416d6f756e742073686f756c642062652067726561746572207468616e207a65726fa165627a7a7230582066aaf11514d6554a8a9ccbfa45c822acba61f59cd2f0db955930fad7ca621e670029",
  "source": "pragma solidity ^0.5.4;\n\ncontract Owned {\n\n    address owner;\n    constructor() public {owner = msg.sender;}\n\n\n    // This contract only defines a modifier but does not use\n    // it: it will be used in derived contracts.\n    // The function body is inserted where the special symbol\n    // `_;` in the definition of a modifier appears.\n    // This means that if the owner calls this function, the\n    // function is executed and otherwise, an exception is\n    // thrown.\n    modifier onlyOwner {\n        require(\n            msg.sender == owner,\n            \"Only owner can call this function.\"\n        );\n        _;\n    }\n}\n\ncontract EccGateway is Owned {\n\n    event NewPayment(address indexed from, uint256 userId, uint256 amount, uint256 paymentTime);\n\n    address paymentCollector;\n    constructor(address _paymentCollector) public {\n        paymentCollector = _paymentCollector;\n    }\n\n    function withdrawLostTRXFromBalance() public onlyOwner {\n        send(owner, address(this).balance);\n    }\n\n\n    function depositNewPayment(uint256 userId) external payable {\n        require(msg.value > 0, \"Amount should be greater than zero\");\n        depositNewExt(msg.sender, userId);\n\n    }\n\n    function depositNewExt(address userAddress, uint256 userId) private {\n        uint32 size;\n        assembly {\n            size := extcodesize(userAddress)\n        }\n        require(size == 0, \"cannot be a contract\");\n        emit NewPayment(userAddress, userId, msg.value, now);\n        send(paymentCollector, msg.value);\n    }\n\n    function setPaymentCollector(address _address) public onlyOwner {\n        paymentCollector = _address;\n    }\n\n    function send(address _receiver, uint256 _amount) private {\n        if (!address(uint160(_receiver)).send(_amount)) {\n            address(uint160(_amount)).transfer(_amount);\n        }\n    }\n}\n",
  "sourcePath": "/Users/mohitarora/Sites/ecc/app/Blockchains/Tron/SmartContract/contracts/development/EccGateway.sol",
  "compiler": {
    "name": "solc",
    "version": "0.5.4+commit.d15a3125.mod.Emscripten.clang"
  },
  "schemaVersion": "2.0.1",
  "updatedAt": "2021-03-23T20:46:44.968Z"
}